:02000000FA2BD9
:10000800FF00030E8301B5000A08B6008A017008D4
:10001800A1008B100130AD000030F4000030F50075
:100028004830F6008530F7002F08F0003008F1005E
:100038003108F2003208F30063230130031D003059
:10004800F000700803192A280130AE000030F400CF
:100058000030F5002030F6008430F7002F08F0005B
:100068003008F1003108F2003208F3006323013050
:10007800031D0030F000700803194328AE012E0854
:10008800003A031D61282F08F0003008F1003108FC
:10009800F2003208F3000030F4000030F5002030A0
:1000A800F6008230F70054217008AF007108B000E4
:1000B8007208B1007308B2007A280030F4000030EA
:1000C800F5002030F6008230F7002F08F0003008E5
:1000D800F1003108F2003208F30079237008AF000C
:1000E8007108B0007208B1007308B2002F08F00060
:1000F8003008F1003108F2003208F3000030F40053
:100108000030F5007F30F6008630F7007F2300309E
:10011800F4000030F5004830F6008530F7002F2253
:1001280020237008BB00E6222108F00036088A0068
:0A013800350E8300FF0E7F0E090054
:0E014200F201F101F001F801F30100300800B4
:100150007B15FB1FB2280130F300F201F101F00121
:08016000FA0DF20CFF3008005B
:08016800FA1FF2130030080039
:10017000FB14FB1FC228FF30F300F200F100F00077
:08018000FA0DF20CFF3008003B
:10018800A0017208031DD9287108F2007008F10057
:10019800F001A0157208031DD9287108F200F101B9
:1001A800A011201672080319E7282008F302031D7E
:1001B800031CEB280310F21BEF28F00DF10DF20DD4
:1001C800F30BDF28EB280130FC00A120F2280230D5
:0E01D800FC00A820F2280430FC00B42008002F
:1001E6007C182929FC18FA287C194829F328A0012B
:1001F6007208031D1A297108F2007008F1007808C8
:10020600F000F801A0157208031D1A297108F20002
:100216007008F100F001A01120167208031D1A29BA
:100226007108F200F101A015720803193C29200893
:10023600F302031D031C40290310F21B2929F80DA4
:10024600F00DF10DF20DF30B202940297B1B701CDC
:100256004429F81F4429F00A0319F10A0319F20A7E
:10026600031D4429F20CF10CF00CF30A031948297A
:1002760044290130FC00A1204B290230FC00A820B3
:100286004B290430FC00B4204B290830FC00B82070
:04029600000008005C
:0E029A008312031334088A0033088200080020
:1002A8008312031372087606A000F801F901730897
:1002B8007702031C77297708FD007308F7007D088B
:1002C800F3007608FD007208F6007D08F200750854
:1002D800FD007108F5007D08F1007408FD00700844
:1002E800F4007D08F00077080319F0297208FA0075
:1002F800F217F61777087302F7000319AA290830CE
:100308007702031CA029F7007408F9007508F400A7
:100318007608F500F60108307702031CA029F700DB
:100328007408F9007508F400F50108307702031C19
:10033800A0297A08F200F02977080319AA290310DE
:10034800F60CF50CF40CF90CF70BA329A01FB72930
:10035800F909F409F509F609F90A0319F40A031960
:10036800F50A0319F60A7908F80774080318740FD0
:10037800F00775080318750FF10776080318760F4C
:10038800F207A01BD029031CE029F20CF10CF00C99
:10039800F80CF30FE029EC290318E429F809F0090F
:1003A800F109F209F80A0319F00A0319F10A031905
:1003B800F20A8030FA06E8290130FC00F320F2291D
:1003C8000230FC00F320F2290430FC00C420F2299A
:1003D8000830FC00B820F2290030FC0000000800BA
:0603E800FB15FF300800C8
:1003EE007B14FB1F022AF201FA1FFF30F200F1000C
:0A03FE00F000FA0DF20CFF300800C9
:1004080083120313FB01FA01F9018030F800F10CA3
:10041800F00C031C182A7408F90775080318750FDF
:10042800FA070318FB0A0310F01F202A7408FA07BA
:1004380075080318750FFB07FB0CFA0CF90CF80C80
:10044800031C0B2A7B08F3007A08F2007908F100F4
:060458007808F000080026
:10045E00831203137408003A031D4A2A7508003AE2
:10046E00031D4A2A7608003A031D4A2A7708003AE5
:10047E00031D4A2AFF30F000FF30F1007F30F200FA
:10048E00FF30F300E52A8312031377080319D92AE4
:10049E0073080319DC2A720876068039FA00F217FF
:1004AE00F617A0017208F8007108FC007008FD0034
:1004BE007408FD027508031C750FFC027608031CF8
:1004CE00760FF802F801FC01FD01031C752A0310DA
:1004DE00F20CF10CF00CF80C0130A0007708F302CE
:1004EE00031C7F2A7E302007F3070318DF2A842A95
:1004FE007E302007F307031CE22A1830FA07FD0DA1
:10050E00FC0DF80DF00DF10DF20DA00D7408F002BA
:10051E007508031C750FF1027608031C760FF202A4
:10052E00760DA004201C9D2A7D14A82A7408F007BD
:10053E0075080318750FF10776080318760AF20787
:10054E007D10FA031F307A05031D862A7B1B7D1C46
:10055E00CF2A0310F00DF10DF20DA00D7408F0026C
:10056E007508031C750FF1027608031C760FF20254
:10057E00760D20040139FD070318FC0A0319F80A49
:10058E00031DCF2AF80CFC0CFD0CF30A0319DF2A0D
:10059E00FA1FF8137808F2007C08F1007D08F000CD
:1005AE000030E42A0130F421E42A0230A120E42AAA
:0E05BE000430B820E42A0830A820000008000D
:1005CC00831603131208013EF000F1010318F10A1F
:1005DC0083123B08F400F50104220630F200700887
:1005EC00F4007108F50072080319012BF50CF40CDA
:1005FC00F513FF3EFA2A0430F1007408F00071087C
:10060C0003190C2BF00D7010FF3E062B30307005CB
:10061C00F3007408F0007508F100F10CF00CF11304
:10062C00F10CF00CF113700895000F30970573085E
:04063C009704080017
:1006400083120313FB01FC01FA01730803194D2BFC
:10065000FA13F2178630F302F31B312B0319312BF7
:100660004F2BF309F30A08307302031C3E2BF300EF
:10067000F20DF2017308031D0310452B73080319D3
:10068000452B0310F20CF30B412B7B1B721C4D2BE3
:10069000031C4D2BF20A0319542BF101572B7B1429
:1006A000FB1F5A2BF1015A2B0130FC005C2B003050
:1006B000FC005C2BFF30FC00FC080319602BF721C9
:0606C0007208F0000800C2
:1006C6008312031373087706031D762B72087606CA
:1006D600031D762B71087506031D762B70087406AC
:0C06E600031903150800031108000800A8
:0C06F200831203138030F6065421080028
:1006FE0083120313FB017308031D77080319D62B0E
:10070E0072087606FA007708F3077E30031C932BE7
:10071E00F3020318D92B962BF302031CDC2B720861
:10072E00F8007108FC007008FD00F817F6170310AA
:10073E00F201F101F0011830A0007D1CB02B7408FD
:10074E00F00775080318750FF10776080318760F72
:10075E00F207F20CF10CF00CF80CFC0CFD0C031073
:10076E00A00BA42BF21BC02BF80DF00DF10DF20D0A
:10077E00F3037B1B701CD22BF81FD22BF00A03192C
:10078E00F10A0319F20A031DD22BF20CF10CF00C34
:10079E00F30A0319D92BFA1FF2130030DE2B0130A6
:1007AE00A120DE2B0230B820DE2B0430A820000062
:0207BE00080031
:0C07C00083120313950117129712080012
:1007CC00831603130711831212150C3097040800BB
:1007DC004D218A110A128000840AB30A0319B40A43
:0807EC00F003031DEE2B0800D1
:1007F40083120313A2013F30A3000630A4005B3030
:10080400A5004F30A6006630A7006D30A8007D30EB
:10081400A9000730AA007F30AB006F30AC00AD01F7
:10082400AE01AF01B0017030B1008330B200831665
:100834008701831287018316880183128501C730DB
:100844008316860083128601230888000B168B17F3
:1008540083160117831212149210F9308316920032
:10086400E023E6232D08003A031D392C342C061FFF
:100874003E2C861F3E2C392C061B742C861F742C90
:10088400093022020318742C8715071006168618DF
:100894004E2C061B4E2C492C0612061B542C861F6C
:1008A400542C4F2C061B592C861B592C542C861B5C
:1008B400632C061F632CA20A2208233E840000082E
:1008C4008800061F682C861B682C632C0619722C62
:1008D400061F722C861F722C861687110710682C2F
:1008E4008612A52C061FA52C861BA52C8711071480
:1008F4008618802C861B802C06167A2C0612861BE2
:10090400862C061F862C812C061B8B2C861B8B2C7D
:10091400862C861F952C061B952CA2032208233EA9
:10092400840000088800061B9A2C861F9A2C952C9C
:100934000619A42C061FA42C861FA42C8616871126
:1009440007109A2C86122208093A031DAA2C0714B0
:04095400392CAB2C63
:02400E004A2F37
:00000001FF
